:020000040800F2
:10000000E8460020010300083B2A0008F12600080A
:10001000392A00081D160008012B00080000000006
:100020000000000000000000000000004102000885
:100030008D170008000000009D020008452A0008F6
:100040001B0300081B0300081B0300081B03000818
:100050001B0300081B0300081B0300081B03000808
:100060001B0300081B0300081B0300081B030008F8
:100070001B0300081B0300081B0300081B030008E8
:100080001B0300081B0300081B0300081B030008D8
:100090001B0300081B0300081B0300081B030008C8
:1000A0001B0300081B0300081B0300081B030008B8
:1000B0001B0300081B0300081B0300081B030008A8
:1000C0001B0300081B0300081B0300081B03000898
:1000D0001B0300081B0300081B0300081B03000888
:1000E0001B0300081B0300081B0300081B03000878
:1000F0001B0300081B0300081B0300081B03000868
:100100001B0300081B0300081B0300081B03000857
:100110001B0300081B0300081B0300081B03000847
:100120001B0300081B0300081B0300081B03000837
:100130001B0300081B0300081B0300081B03000827
:100140001B0300081B0300081B0300081B03000817
:100150001B0300081B0300081B0300081B03000807
:100160001B0300081B0300081B0300081B030008F7
:100170001B0300081B0300081B030008000000000D
:100180001B0300081B03000800F002F800F049F808
:100190000AA090E8000C82448344AAF10107DA45E2
:1001A00001D100F03EF8AFF2090EBAE80F0013F0EB
:1001B000010F18BFFB1A43F001031847F04000007D
:1001C00010410000103A24BF78C878C1FAD852070D
:1001D00024BF30C830C144BF04680C6070470000C1
:1001E0000023002400250026103A28BF78C1FBD840
:1001F000520728BF30C148BF0B607047662903F023
:10020000E887002070471FB503F0D9FF00F034FCE9
:1002100004000020002103F025FBE0601FBD10B5A5
:1002200010BD00F029FD1146FFF7EDFF02F098FC2C
:1002300000F047FD03B4FFF7F2FF03BC00F08AFDB6
:100240002C4B19680868B0E8F04F80F30988BFF3B9
:100250006F8F4FF0000080F311887047000000009E
:1002600008480068006880F308884FF0000080F3B9
:10027000148862B661B6BFF34F8FBFF36F8F00DF94
:1002800000BF00BF08ED00E0DFF80C00016841F49A
:1002900070010160704700BF88ED00E0EFF3098056
:1002A000BFF36F8F134B1A681EF0100F08BF20EDBD
:1002B000108A20E9F04F106009B44FF0500080F32D
:1002C0001188BFF34F8FBFF36F8F03F0DFF84FF04C
:1002D000000080F3118809BC19680868B0E8F04F85
:1002E0001EF0100F08BFB0EC108A80F30988BFF32E
:1002F0006F8F70471C000020EFF3058070470000EF
:100300000948804709480047FEE7FEE7FEE7FEE7A9
:10031000FEE7FEE7FEE7FEE7FEE7FEE704480549E5
:10032000054A064B70470000F12A000889010008C1
:10033000E8400020E8460020E8420020E842002093
:1003400053EA020C00F069802DE9F04B4FF00006F3
:10035000002B1FBFB3FA83F503FA05F424FA05F660
:100360005E4012BF1643B2FA82F502FA05F4C5F1F7
:1003700020051EBF22FA05FC44EA0C04203556EA8B
:10038000044C4FEA144418BF641C4FF000084FF0AF
:100390000009904271EB030C39D3002919BFB1FA5F
:1003A00081F701FA07F6B0FA80F700FA07F6C7F10D
:1003B00020071EBF20FA07FC46EA0C062037B6FBD2
:1003C000F4FCA7EB0507103F07F01F0BCBF120064D
:1003D0000CFA0BFB2CFA06F644BFB3460026202F7E
:1003E000A4BF5E464FF0000B5BEA060C08BF4FF05F
:1003F000010B19EB0B09ABFB027C48EB0608C01B99
:1004000006FB02CC0BFB03CC71EB0C01C1E70B46E6
:10041000024641464846BDE8F08B13B54FF0000058
:100420004FF00001AFF30080BDE81C4070470000B2
:100430000FB41CB5074B06AA7B446946009005988B
:1004400000F001FB0020694600F010FB1CBC5DF8C9
:1004500014FB0000310600002DE9F0474FF0000AC0
:1004600089460446C0F820A02046E1688847002855
:1004700076D0252806D0D4E901219047206A401C77
:100480002062F1E7E168204600258847C4F81CA0F7
:1004900006460027C4F818A02A2E09D0304602F0DC
:1004A00058FB38B304EB8708303EC8F8186019E0F1
:1004B00059F8041B204604EB87029161E1688847E4
:1004C000012F064618D1E069002820DA25F0200522
:1004D0001DE0D8F8180000EB800006EB4000303833
:1004E000C8F818002046E1688847064602F031FB4C
:1004F0000028EED1012F0AD02E2E08D12046E16827
:1005000088477F1C0646022F45F02005C4DBA06902
:10051000002803DA404245F00105A061E80701D058
:1005200025F01005B6B1A6F14100192802D82036F1
:1005300045F400654A463146204625604D46FFF7A2
:100540005DFE58B1012806D0ED1D25F0070000F131
:10055000080989E704E005F1040985E730468AE7E0
:10056000206ABDE8F08710B5203AC0F00B80B1E8F2
:100570001850203AA0E81850B1E81850A0E81850D8
:10058000BFF4F5AF5FEA027C24BFB1E81850A0E8E1
:10059000185044BF18C918C0BDE810405FEA827CFB
:1005A00024BF51F8043B40F8043B08BF7047D20712
:1005B00028BF31F8023B48BF11F8012B28BF20F8B3
:1005C000023B48BF00F8012B70474FF0000200B516
:1005D000134694469646203922BFA0E80C50A0E866
:1005E0000C50B1F12001BFF4F7AF090728BFA0E814
:1005F0000C5048BF0CC05DF804EB890028BF40F8E0
:10060000042B08BF704748BF20F8022B11F0804F21
:1006100018BF00F8012B704770477047704770474C
:100620002DE9FF4F0C461E464FF0FF378BB0D2E945
:100630000001DDF860800A908A46C1F30A5505B9C9
:100640003D46002108464FF00000BAF1000F00F4CB
:10065000400005DA00EB80004FF4400101EA500051
:100660004FEA9059B9F1010F00DDB9460A9850EAF6
:100670004A000ED044F61050A5F2FF3545432F1422
:10068000B8F1000F1ED07542291E1EDDC9F100020F
:100690001CE0B8F1010F4FF0000001D0302103E061
:1006A000F24305E02154401CB042FBDB30460022FF
:1006B000002121540B99C1F80880C1E900200FB036
:1006C000BDE8F08FBD1B6D1CDEE74A4600DA6942CB
:1006D00006A800F05BFA06AB93E8070003AB83E8DB
:1006E000070050460A9900F03CFB8DE80700A0F592
:1006F00000501F3800900398002D0ADD42F21F01C0
:100700004A460844002303A90390684600F0A5FD6B
:1007100009E0A0F500504A461F38002303A90390C2
:10072000684600F0AFFD8DE807000004000C03D020
:100730004FF0FF30410800E01046B8F1000F03D041
:100740000022009215461EE0751E05D400F098F9AF
:10075000303262556D1EF9D5B3460122084302D0EE
:1007600000227F1C04E02078302801D100227F1E67
:10077000002A099784D01DE0112D07DA00F080F9D6
:10078000303262556D1C50EA0102F5D1084302D0A7
:100790000098C8B10EE00021681E05E0235C625C91
:1007A00063542254401E491C8142F7DBAB46A81B10
:1007B000401E0990002004F80B000B98099AC0F81D
:1007C0000880C0E9002B7AE711264FF0000857E7B0
:1007D0002DE9F04F88460446D21D22F0070191B062
:1007E000D1E90001CDE90A0102F08BF902460B982C
:1007F000C00F01D02D2007E02068810701D52B20F4
:1008000002E0202101EAC000032A099001D0072A52
:1008100005DB03464146204600F078F90BE12078DD
:10082000800601D5E06900E00620B8F1650F814639
:1008300006D0B8F1660F18D0B8F1670F70D131E06B
:100840000020B9F1110F009001DB112301E009F143
:1008500001030AAA01A90CA8FFF7E2FEDDE90C706A
:10086000002609F10105834647E001204B46009030
:100870004FF000470AAA01A90CA8FFF7D1FEDDE955
:100880000DB00C995D46002610B909F101000D1854
:10089000B9EB050003D4C0F1FF3609F10105A5EB62
:1008A00009002BE0B9F1010F01DA4FF00109002036
:1008B000B9F1110F0090484601DD112300E0034615
:1008C0000AAA01A90CA8FFF7ABFEDDE90C704D46A2
:1008D00000268346207800070AD4AB4500DA5D463F
:1008E00001A8012D04DD411911F8011C302907D0A0
:1008F0004F4502DA17F1040F04DA012082460FE0B7
:100900006D1EEEE7002F02DCED1B3E4403E0781C79
:10091000A84200DD7D1CB81B00F1010A4FF0004722
:100920002078000703D4AA4501DB4FF0FF3A0021ED
:10093000B7F1004F0DF143088DF8431024D0022089
:100940002B23002F01DA7F422D230A21021EA0F162
:10095000010000DC5FB197FBF1FC97FBF1F201FBBA
:100960001C7C17460CF1300C08F801CDEEE7A8F11D
:10097000010003702188090501D5452100E06521AA
:10098000A0F1010800F8011C09980FA9A1EB0807C4
:10099000FF1D00B10120411901EBEA70A169384443
:1009A000081A401EA0612078C00602D42046AFF38A
:1009B0000080099828B1D4E901219047206A401CA1
:1009C00020622078C00622D52046AFF300801EE0CA
:1009D000002E04DBB34502DD01A8805D00E030207D
:1009E000D4E901219047206A401C2062761CAAF1BC
:1009F00001005FEA000A0AD100F03EF8C068016811
:100A0000405CD4E901219047206A401C2062281EE6
:100A1000A5F10105DCDC07E0D4E9012118F8010BA0
:100A20009047206A401C2062381EA7F10107F3DCC2
:100A30002046AFF30080032011B041E601694A1C53
:100A400002610878704700B58FB0CDE9013100210F
:100A5000059105497944CDE9031011466846FFF731
:100A6000FBFC0FB000BD0000E5FFFFFF0A6802F8C5
:100A7000010B0A607047000000487047A440002046
:100A800030B5B0F10A024FEA900E71F100034EEA60
:100A9000817EB0EB0E0061EB91014FEA101E4EEA31
:100AA000017E10EB0E0041EB11114FEA102E4EEAC1
:100AB000016E10EB0E0041EB11214FEA104E4EEA91
:100AC000014E10EB0E0041EB1141401841F10001C5
:100AD0004FEAD00040EA41704FEAD10110EB8005A7
:100AE0004FEA810444EA907444EB01046D1944EB2D
:100AF0000404521BA3414FF0000348BF0A3200D543
:100B000030BD401C41F1000130BD00002DE9F04135
:100B10001F46044603260168072A01F4006004DB2F
:100B200008B116A505E016A503E008B115A500E07B
:100B300015A521F010002060A069C01EA0610FB1B2
:100B4000401EA0612046AFF300804FB1D4E90121DF
:100B500038469047206A401C2062C01C206206E094
:100B6000206AFAE7D4E9012115F8010B9047761EB7
:100B7000F8D22046AFF30080BDE8F0814E414E0030
:100B80006E616E00494E4600696E66002DE9F047C1
:100B9000814616468AB0354878440DC88DE80D0068
:100BA00032487844801C03AC0DC884E80D0041F63F
:100BB0009B300844372190FBF1F290FBF1F5A5F151
:100BC000800501FB12041B3C02D56442012000E0B9
:100BD0000020DFF898A080460027FA44AAF1BE0A58
:100BE0000EE0E0070AD03246684607EB47010123D2
:100BF0000AEB810100F046FB8DE8070064107F1CC2
:100C0000002CEED1194F7F44AE3F19E0E80715D014
:100C100007EB04100DF1180A90E80E008AE80E00A8
:100C2000C068F04201D1981908903246012306A904
:100C300003A800F027FB03AB83E807006D10641CDA
:100C4000002DE3D14FF0010332466946B8F1000FA1
:100C500003A802D000F001FB01E000F013FBC9E99A
:100C60000001C9F808200AB0BDE8F087EC360000A2
:100C700000487047844000207546FFF7F9FFAE46F4
:100C800005006946534620F00700854618B020B598
:100C9000FFF744FBBDE820404FF000064FF000078F
:100CA0004FF000084FF0000B21F00701AC46ACE814
:100CB000C009ACE8C009ACE8C009ACE8C0098D4681
:100CC000704710B50446AFF300802046BDE81040E1
:100CD000FFF7B0BA4FF0013C50F8042B51F8043B39
:100CE0009A4221D1A2EB0C03934313EACC1317D100
:100CF00050F8042B51F8043B9A4215D1A2EB0C0397
:100D0000934313EACC130BD150F8042B51F8043B56
:100D10009A4209D1A2EB0C03934313EACC13DBD024
:100D20004FF00000704700BFD01A01BAB1FA81F14C
:100D300001F0180122FA01F0CB40C1F12001DBB231
:100D4000C0B2C01A2CFA01F3D11A914311EAC311AF
:100D5000E6D1704701491820ABBEFEE7260002002D
:100D600070475FEA400C08BF91F0000F4FEA8C23F8
:100D70004FEAC12243EA51514FEA1C5018BF00F517
:100D8000F0404FEA300018BF41F000415FEA6C5C70
:100D900000F02980BCF1FF3F08BF40F08040704761
:100DA000130C06BF12044FF0100C4FF0000C130E82
:100DB00004BF12020CF1080C130F04BF12010CF156
:100DC000040C930F04BF92000CF1020CD30F04BF6C
:100DD00052000CF1010C11464FF00002A0F11F006F
:100DE000A0EB0C00704711F0004F08BF704731F0C6
:100DF00000413FF4D5AF0B0C06BF09044FF0100CB7
:100E00004FF0000C0B0E04BF09020CF1080C0B0F85
:100E100004BF09010CF1040C8B0F04BF89000CF115
:100E2000020CCB0F04BF49000CF1010CCCF12003E4
:100E3000A0EB0C0022FA03F302FA0CF241EA0301E0
:100E400000F10100704720F07F4C80EA030023F09E
:100E50007F47ACEB070303F57C5300F0004003F140
:100E6000FF032DE980494FEA154B09B44FEA1443BB
:100E700025EA0B4E24EA03480FF2042606EB13275B
:100E800049083E785FEA320203FB0667C7F50007B0
:100E900007FB06F64FEA54374FEAD64606F102063C
:100EA00007FB066CCCF1005C4FEA1C472CEA074CB0
:100EB00007FB06F40CFB06F504EB15464FEA961605
:100EC00034BF00204FF000404FEAD13706FB07FC4B
:100ED0004FEA1C4C0CFB0BF7D21B03FB0CF761EB2E
:100EE00007010CFB0EF7B0EB074072EB17420CFB4F
:100EF00008F734BFA2EB0742B2EB074261EB1741A0
:100F00004FEA0C444FEA910706FB07FC4FEA1C4CE2
:100F10000CFB0BF7B0EBC74072EB573203FB0CF73F
:100F200034BFA2EBC742B2EBC74261EB57310CFBB7
:100F30000EF7B0EBC70072EB57720CFB08F734BF2B
:100F4000A2EBC702B2EBC70261EB5771039F4FEAF6
:100F5000816141EA921104EBCC044FEAD1374FEAA8
:100F6000826206FB07FC42EA90124FEA80604FEA79
:100F70001C4C0CFB0BF7D21B03FB0CF761EB0701BE
:100F80000CFB0EF7B0EB074072EB17420CFB08F7B7
:100F900034BFA2EB0742B2EB074261EB17414FEAC5
:100FA0008C554FEA910704EB9C2406FB07FC4FEAA3
:100FB0001C4C0CFB0BF7B0EBC74072EB573203FB3A
:100FC0000CF734BFA2EBC742B2EBC74261EB57311B
:100FD0000CFB0EF7B0EBC70072EB57720CFB08F777
:100FE00034BFA2EBC702B2EBC70261EB577115EB3E
:100FF0004C254FEA816141EA92114FEA82624FEA41
:10100000D13742EA901206FB07FC44F100044FEA94
:1010100080604FEA1C4C0CFB0BF7D21B03FB0CF758
:1010200061EB07010CFB0EF7B0EB074072EB1742C8
:101030000CFB08F734BFA2EB0742B2EB074261EBAF
:10104000174115EB1C154FEA813141EA92414FEAF5
:10105000823242EA90424FEA80304FEA0C7644F105
:10106000000448EA03434EEA0B484FF0000EB2EB8F
:10107000080C71EB030724BF624639464EEB0E0E97
:101080004FF0000B0018524149414BEB0B0BB2EBF8
:10109000080C71EB03077BF1000B24BF6246394655
:1010A0004EEB0E0E4FF0000B0018524149414BEB36
:1010B0000B0BB2EB080C71EB03077BF1000B24BFA9
:1010C000624639464EEB0E0E51EA020718BF46F053
:1010D000010616EB0E7655F1000254F1000103D51E
:1010E000BDE88901BDE80088BDE88901BDE8004888
:1010F000B619524141EB0101A3F101037047808011
:101100007F7E7D7C7B7A7978777676757473727161
:1011100071706F6E6E6D6C6C6B6A6A696868676619
:1011200066656464636362616160605F5F5E5E5DAB
:101130005D5C5C5B5B5A5A5959585857575656551F
:1011400055555454535352525251515050504F4F81
:101150004F4E4E4D4D4D4C4C4C4B4B4B4A4A4A49D1
:101160004949484848474747474646464545454414
:101170004444444343434342424242414141002BA1
:101180009C4630D477002BD01CB54FEA370703B408
:101190004FF010004FF01001BAF1000F06D0BCF173
:1011A000000FDCBF40F0080040F008014FF00000E5
:1011B0000FBCBDE810400BF1010BBBF1010F08BFE4
:1011C0005FEA170722BF12F1010211F101014FF08E
:1011D000004143F1000300F0004043EA0000704783
:1011E000F9D35708D0E746EA064613F1400F4FEA15
:1011F00016461FDD13F1200FDFBF16430A460021FC
:1012000020335B42BED0C3F1200746EA064602FA0D
:1012100007F74FEA164646EA0706C3F1200722FA07
:1012200003F201FA07F721FA03F14FF0000342EA53
:101230000702A7E746EA020646EA06464FEA1646CE
:1012400046EA0106BCBF46EA0646360C4FF00003EC
:101250004FF000024FF0000194E72DE9804C9A46D0
:10126000934670B491E8380007C831EA400C48BF93
:1012700034EA430C03D5FFF7E6FDFFF780FFF0BC2F
:10128000BDE8008C2DE9804C9A46934670B491E8F5
:10129000380007C810F0804F08BF13F0804F03D10B
:1012A00000F005F8FFF76BFFF0BCBDE8008C20F004
:1012B0007F4780EA030023F07F4C07EB0C03A3F584
:1012C0007C5300F00040A3F1FE0392F0000F00F009
:1012D000B38095F0000F00F077802DE901494FEAC7
:1012E00011404FEA144621EA004800FB06FC24EABC
:1012F000064708FB06F607FB08F800FB07F718EBA4
:1013000006484CEB164C4FEA124B18EB07484FEAD5
:1013100015464CEB174022EA0B4E0BFB06FC25EA68
:1013200006470EFB06F607FB0EFE0BFB07F71EEB50
:10133000064E4CEB164C4FF000061EEB074E4CEBE6
:10134000174B18EB0B0840F1000018EB0E0B58EB95
:10135000000840F100008F1A4FF000013CBFC94364
:10136000661B14BFB5EB040C00213CBFC943F61B40
:101370004FEA17444EEA8E0E27EA04454FEA1C470F
:1013800004FB07622CEA074C05FB07F70CFB05F68C
:1013900004FB0CFC16EB074642EB174216EB0C461F
:1013A00042EB1C421BEB060658EB0202414146EAA7
:1013B0009E0601D5BDE80189B619524141EB0101F4
:1013C000A3F10103BDE801894FEA14454FEA114733
:1013D00024EA054621EA074C05FB07F406FB07F75C
:1013E0000CFB06F105FB0CFC11EB074144EB174429
:1013F0004FEA124711EB0C4144EB1C4422EA074C24
:1014000005FB07F206FB07F70CFB06F605FB0CFCD9
:1014100016EB074642EB174216EB0C4642EB1C4517
:101420006A1854F1000148BF7047B619524141EBA8
:101430000101A3F10103704795F0000F37D04FEA87
:1014400011424FEA144721EA024624EA074C02FB04
:1014500007F106FB07F70CFB06F402FB0CFC14EB90
:10146000074441EB17414FEA154714EB0C4441EB9D
:101470001C4125EA074C02FB07F506FB07F70CFBAE
:1014800006F602FB0CFC16EB074645EB174516EB80
:101490000C4645EB1C42121951F1000148BF704740
:1014A000B619524141EB0101A3F1010370474FEA24
:1014B00014454FEA114724EA054621EA074C05FB8B
:1014C00007F106FB07F70CFB06F24FF0000605FBE1
:1014D0000CFC12EB074241EB174112EB0C4251EBB3
:1014E0001C4148BF7047921841EB0101A3F1010371
:1014F00070470000464910B54A6822F440324A60FD
:101500004A6843681A434A6001684A6822F4807254
:101510004A6001684A68036942EA03224A60016836
:101520004A6822F040724A6001684A6883681A4338
:101530004A6001688A6822F400628A6001688A68E9
:10154000C3681A438A60816A6FF07062D142016891
:101550008A6822F070628A6001688A680CD0836AA7
:101560001A438A6001688A6822F040528A600168E2
:101570008A68C36A1A4301E022F040528A60016817
:101580008A6822F002028A6001688A68037E42EA61
:1015900043028A6090F82010002901684A680FD041
:1015A00042F400624A6001684A6822F460424A607C
:1015B00001684A68174C436A04EB43331A4301E05D
:1015C00022F400624A600168CA6A22F47002CA62A8
:1015D0000168CA6A838B104C04EB03531A43CA6236
:1015E00001688A6822F400728A6001688A6890F84B
:1015F000303042EA43228A6001688A6822F48062BD
:101600008A6001688A68406942EA8020886010BD6B
:101610000023014000E0FFFF0000F0FFFEE710B5EF
:1016200004460298216022716371A0712820A07283
:101630000620E0710C202072142060720820E072F5
:10164000322000F07DFA00223321204600F069F8B4
:1016500000223321204600F064F8052000F070FAE3
:1016600000223221204600F05CF8052000F068FAE4
:1016700000222021204600F054F8052000F060FAF6
:10168000E1790022204600F04CF8217A0022204621
:1016900000F047F8617A0022204600F042F8A17A73
:1016A0000022204600F03DF800220121204600F0F3
:1016B00038F820460022BDE81040022100F031B881
:1016C00030B4447900238C4201D8641EE1B284799D
:1016D000944201D8641EE2B232B1012A06D0022A35
:1016E00006D0032A06D007E00B4605E0403102E0B1
:1016F000143100E05431CBB230BC43F08001002201
:1017000000F00FB8012200F00CB870B50C46054689
:1017100003E02846641CFFF7F5FF21780029F8D183
:1017200070BD7CB506460807040EF07A01F0F0059E
:1017300018B145F0080544F00804012A01D02AB187
:1017400008E045F0010544F0010403E025F001053F
:1017500024F0010445F004008DF80400012000F09D
:10176000EFF98DF8055044F004008DF806000120D3
:1017700000F0E6F94FF47A708DF807400090317967
:10178000042301AA306800F0B5FB7CBD704700005F
:1017900078B50024009490F83C20012A19D0012249
:1017A00080F83C200A6807230568092A13D9EE68E7
:1017B0000A3A02EB420293409E43EE600B788A683D
:1017C0000A3B03EB43039A400368DD682A43DA606F
:1017D00010E0022078BD2E6902EB420293409E4346
:1017E0002E610B788A6803EB43039A4003681D69F6
:1017F0002A431A614A681F23072A13D205686E6BB1
:10180000521E02EB820293409E436E630B790A885C
:101810005B1E92B203EB83039A4003685D6B2A431D
:101820005A6327E005680D2A12D22E6BD21F02EBF5
:10183000820293409E432E630B790A88DB1F92B28B
:1018400003EB83039A4003681D6B2A431A6311E07C
:10185000EE6A0D3A02EB820293409E43EE620B79F0
:101860000A880D3B92B203EB83039A400368DD6A5A
:101870002A43DA62164B0568144A9D4206D10D6868
:10188000122D03D1556845F48005556005689D42C9
:1018900018D10B68102B01D0112B13D1536843F4CE
:1018A00000035360096810290CD10A490A4A0968E3
:1018B000B1FBF2F101EB8101490000E0491E00910A
:1018C0000029FBD180F83C40002078BD0023014076
:1018D000002001401800002040420F000068C06C4A
:1018E000704770B504004FF0000503D0206C00264F
:1018F00010B107E0012070BD204600F01DF86664BD
:1019000084F83C60206CC00610D4206C20F4885011
:1019100040F0020020642046FFF7ECFD6664206C76
:1019200020F0020040F00100206400E0012584F86E
:101930003C60284670BD000010B586B004461421F6
:101940006846FEF742FE1149206888421CD11048C3
:101950000021026842F480720260006800F4807026
:1019600005900B481438026842F0010202600068DA
:1019700000F001000590012000900320CDE9010155
:101980006946044800F0EEF806B010BD00200140A2
:1019900044380240000002402DE9F041044600684E
:1019A0000D4681684FF0000749050BD58068C005DA
:1019B00008D5206C40F02000206484F83C700120A1
:1019C000BDE8F08100F0CCF9064613E0681C11D0A8
:1019D00025B100F0C5F9801BA8420BD9206800682A
:1019E000800707D4206C40F00400206484F83C7029
:1019F0000320E5E7206800688007E7D521686FF0DD
:101A000012000860206C40F4007020642068816837
:101A100011F0405F13D1217E89B9C16A11F4700FB2
:101A200002D0806840050AD4206C20F480702064C5
:101A3000206CC00403D4206C40F00100206400201E
:101A4000BEE7000018B50021009190F83C20012A63
:101A500007D0012280F83C2002689368DB0702D09F
:101A600011E0022018BD936843F0010393602E4AF1
:101A70002E4B1268B2FBF3F202EB420200E0521E60
:101A80000092002AFBD102689368DB0742D0036C06
:101A900040F20164A34343F48073036453685B051D
:101AA00005D5036C23F4005343F480530364036CA3
:101AB000DB0404D5436C23F00603436400E0416477
:101AC00080F83C101A496FF02203136049680068DF
:101AD000CA06184906D0884224D1816811F0405FB7
:101AE00013D01FE08842F8D0134A904203D1D1F8B6
:101AF0000423D206F1D0114A904213D1D1F8041335
:101B000001F01F011029E8D30CE0816841F0804109
:101B1000816007E0016C41F010010164416C41F00B
:101B200001014164002018BD1800002040420F0050
:101B3000002301400020014000210140002201401B
:101B400070B5044600F00CF90546601C02D004484C
:101B50000078044400F004F9401BA042FAD370BDA1
:101B60000C0000202DE9F84FDFF8BCA10022012570
:101B70000AF1040B03264FF00F090BF1040E00BF0E
:101B80000B6805FA02F42340A34270D10F7907F0E5
:101B90000307012F01D0022F16D187684FEA4208B0
:101BA00006FA08FC27EA0C07D1F80CC00CFA08FC6E
:101BB0004CEA070CC0F808C04768A7430C79C4F387
:101BC000001494403C4344600C79E443A4070AD0D9
:101BD000C4684FEA420C06FA0CF7BC438F6807FA58
:101BE0000CF72743C7600C7904F00304022C12D1D0
:101BF000D40800EB840CDCF820405707FF0E09FAEC
:101C000007F824EA0804D1F8108008FA07F848EA2F
:101C10000408CCF8208004684FEA420C06FA0CF75E
:101C2000BC430F7907F0030707FA0CF72743076057
:101C30004C6814F4403F70D03C4C276847F4804710
:101C40002760246822F0030704F480440094384C91
:101C500007EB040CDCF8084897074FEA177809FAF5
:101C600008F7BC43334FB84202D1002724E054E0C8
:101C7000314FB84201D101271EE0304FB84201D1A7
:101C8000022719E02E4FB84201D1032714E02D4F4F
:101C9000B84201D104270FE02B4FB84201D10527EC
:101CA0000AE02A4FB84201D1062705E0284FB84282
:101CB00001D1072700E0082707FA08F72743CCF8E7
:101CC0000878DAF800405746D1F804C09C435FEA30
:101CD000CC3C00D51C433C60DBF800405F46D1F8AB
:101CE00004C09C435FEA8C3C00D51C433C60DEF89A
:101CF00000407746D1F804C09C435FEACC2C00D565
:101D00001C433C60084F0C373C68D1F804C09C432E
:101D10005FEA8C2C00D51C433C60521C102AFFF457
:101D20002FAFBDE8F88F0000003C0140443802406E
:101D30000030014000000240000402400008024060
:101D4000000C024000100240001402400018024043
:101D5000001C02400AB1816170470904FBE70000E2
:101D600001488068704700000C00002070B5040036
:101D700025D094F83D00002520B984F83C50204639
:101D800000F04EF9242084F83D002068016821F01D
:101D9000010101602068016841F400410160206890
:101DA000016821F40041016000F098FA4D4A616831
:101DB000914201D84C4900E04C49884201D20120AF
:101DC00070BD4B492368B0FBF1F15E6826F03F0619
:101DD0000E435E606368934206D94FF4967359438D
:101DE0004FF47A73B1FBF3F12368491C1E6A26F0A5
:101DF0003F06314319626168914210D84900401E84
:101E0000B0FBF1F2521CC2F30B02042A01D20420EF
:101E100022E0B0FBF1F0401CC0F30B001CE0A26814
:101E2000F2B301EBC10303EB0116431EB3FBF6F360
:101E30005B1C43F480431B0549D092B301EBC10204
:101E400002EB0111401EB0FBF1F0401CC0F30B008F
:101E500040F4804040F400402168CA694CF6FF73AA
:101E60009A431043C861D4E907100143206802680F
:101E700022F0C00211430160D4E90301014320684C
:101E8000826848F2FF339A4311438160D4E9050127
:101E900008432168CA6822F0FF021043C86001E0CD
:101EA0000EE016E02068016841F001010160256440
:101EB000202084F83D00256384F83E50002070BD4A
:101EC00001EB4106431EB3FBF6F35B1CB3E70120B5
:101ED000C2E701EB4101401EB0FBF1F0401CC0F332
:101EE0000B00B7E7A086010080841E0000093D00BA
:101EF00040420F002DE9F84F1F4690468A4604469F
:101F0000DDF82890FFF72CFF054694F83D002028C7
:101F10007FD11923012240492046009500F074FC2E
:101F2000002876D194F83C00012872D0012084F872
:101F30003C0020680168C90703D1016841F0010134
:101F400001602068016821F400610160212084F8AB
:101F50003D00102084F83E0000262664C4F824804A
:101F60006785608D20852D48E0622B464A465146A4
:101F7000204600F0D5FB90B9206841698069009047
:101F800036E02A464946204600F0BDFC50B1206CA0
:101F9000042804D12068016841F400710160012027
:101FA000BDE8F88F606A216800780861606A401CAB
:101FB0006062618D491E6185218D491E89B221852E
:101FC00022685369DB435B070BD451B10078106181
:101FD000606A401C6062608D401E6085208D401EDE
:101FE00020852A464946204600F0E8FB0028CED14D
:101FF000208D0028C5D154F83D0B016841F40071D3
:102000000160202004F81E09E67766770020C7E704
:10201000FFE70220C4E70000020010000000FFFFFD
:1020200010B586B0044614216846FEF7CEFA13496F
:102030002068884220D112480021026842F0020242
:102040000260006800F002000590C020009012209D
:10205000CDE901010320039004200490694609485A
:10206000FFF780FD06481030016841F4001101605F
:10207000006800F40010059006B010BD0054004048
:10208000303802400004024002488168027811445E
:10209000816070470C0000200B4810B5016841F4C6
:1020A00000710160016841F480610160016841F4E0
:1020B00080710160032000F065F80F2000F006F841
:1020C00000F024F8002010BD003C024070B50D4D1A
:1020D00004464FF47A712878B1FBF0F00A49096898
:1020E000B1FBF0F000F0F0FA48B9102C07D2002252
:1020F0002146501E00F026F800206C6070BD0120C3
:1021000070BD00000C000020180000200C4882B0B8
:10211000016841F480410160006800F48040009053
:102120000748001F016841F08051016000680022EB
:1021300000F0805000900F21901E02B000F002B815
:1021400044380240F0B40E4B1B680C46C3F3022324
:10215000C3F10705042D00D90425191D072901D253
:10216000002300E0DB1E012606FA05F1491E21408E
:1021700099409E40761E16403143F0BC00F0D9BC19
:102180000CED00E0064900F0070208684FF6FF0377
:10219000184040EA0220034A1043086070470000DC
:1021A0000CED00E00000FA052DE9F0470E460500B1
:1021B00065D0DFF81481D8F80000F7B200F007000E
:1021C000B04207D288F80070D8F8000000F007008D
:1021D000B04254D128683D4C810712D5400703D541
:1021E000206840F4E05020602878000703D520687C
:1021F00040F4604020602068A96820F0F0000843A7
:1022000020602878C0072DD0304968680839012837
:1022100012D0022813D0032811D009688907002999
:102220002DDA216821F0030101432160FFF798FDB9
:10223000814641F2883A0EE009688903EFE70968B0
:102240008901ECE7FFF78CFDA0EB0901514502D9AC
:102250000320BDE8F0872068696800F00C00B0EB4F
:10226000810FEFD1D8F80010404601F00701B142CC
:1022700007D90770006800F00700B04201D00120C4
:10228000E7E72878400705D52068E96820F4E050A2
:10229000084320602878000706D52068296920F4C3
:1022A000604040EAC100206000F028F82168084A38
:1022B000C1F30311515CC840064908600648006834
:1022C000FFF704FF0020C4E7003C0240083802404A
:1022D000F4410008180000201000002004480549BF
:1022E00000680968044AC1F38221515CC840704704
:1022F000180000200838024004420008154810B5B4
:10230000006810F00C02144813D04110042A0FD0BA
:10231000082A0ED10F4C241F2268236802F03F02C6
:102320005B0207D52068C0F38810A0FB010106E01E
:10233000084610BD2168C1F38811A1FB00010023EC
:10234000FDF7FEFF2168C1F30141491C4900B0FBC4
:10235000F1F010BD083802400024F4002DE9F84FD8
:1023600004006ED02078DFF84C93C007A9F1040573
:102370004AD009F104000168C1F38101012908D0A4
:102380000068C0F3810002280AD1D9F80000400299
:1023900006D52868800337D560680028E1D033E08F
:1023A0006068B0F5803F10D0B0F5A02F286810D03D
:1023B00020F480302860286820F48020286060683D
:1023C000A8B1FFF7CDFC06460DE0286840F4803048
:1023D000F4E740F480202860F7E700BFFFF7C0FC77
:1023E000801B642873D828688003F7D50CE0FFF7BA
:1023F000B7FC064605E000BFFFF7B2FC801B64286F
:10240000F0D828688003F7D42078DFF8AC82800702
:102410004FF0000A3ED5A748001D016811F00C0FCF
:1024200008D00068C0F3810002280BD1D9F8000061
:10243000400207D42868800716D5E068012800D13B
:1024400012E033E1E068B8B10120C8F80000FFF7FE
:1024500087FC064605E000BFFFF782FC801B0228D0
:10246000C0D828688007F7D52868216920F0F800CF
:1024700040EAC10028600DE0C8F800A0FFF770FC3A
:10248000064604E0FFF76CFC801B02281FD8286872
:102490008007F7D42078000722D5864F87486169E6
:1024A000703771B101210160FFF75AFC064604E064
:1024B000FFF756FC801B022809D838688007F7D53B
:1024C0000EE0C0F800A0FFF74BFC064605E082E0F6
:1024D000FFF746FC801B02287DD838688007F7D4B8
:1024E0002078400768D5DFF8CCB100270BF13C0B12
:1024F000DBF80000C0000BD4DBF8001041F0805185
:10250000CBF80010DBF80000012700F080500090AD
:102510006B4E3068C00510D4306840F48070306075
:10252000FFF71EFC009005E0FFF71AFC0099401A27
:10253000022850D83068C005F6D55E4EA0686C36CB
:1025400001280FD00528306810D020F0010030603D
:10255000306820F004003060A068B8B1FFF700FCDC
:1025600000900FE0306840F00100F4E740F0040014
:102570003060F7E7FFF7F4FB0099411A41F2883029
:10258000814266D830688007F4D50EE0FFF7E8FB9B
:10259000009007E0FFF7E4FB0099411A41F2883010
:1025A000814256D830688007F4D42FB1DBF8001090
:1025B00021F08051CBF80010A069C8B33D49091D36
:1025C0000968C1F3810102294AD00228504607D088
:1025D000C8F8600000E03CE0FFF7C2FB04463BE0C7
:1025E0004746C8F86000FFF7BBFB064605E000BFA2
:1025F000FFF7B6FB801B02282BD828688001F7D490
:10260000D4E907010843A16A2E4A490802EB0141B7
:10261000626A41EA8211084394F82C1040EA016191
:10262000C9F8001001203866FFF79AFB044606E05F
:102630003EE000BFFFF794FB001B022809D8286882
:102640008001F7D534E000BFFFF78AFB001B0228AA
:1026500002D90320BDE8F88F28688001F4D427E070
:102660000128F7D0D9F80000E26900F48001914216
:102670001CD1226A00F03F01914217D147F6C07188
:10268000626A0140B1EB821F10D1A26A4FF0FF33A2
:1026900000F4403103EB5202B1EB024F06D194F843
:1026A0002C1000F07060B0EB016F01D00120D1E779
:1026B0000020CFE70438024000004742800E474226
:1026C000007000400000FFFF10B5401EB0F1807F99
:1026D00001D3012010BD4FF0E02460610F2160178D
:1026E00000F027FA0020A06107202061002010BD23
:1026F000FEE701684A69D24352050FD46FF4806245
:102700004A61002140F8301F202242738173026920
:1027100042F00402026101730120704700207047FB
:10272000F8B50446C06A1E460D461746082807D06D
:10273000012805D010F5803F02D0206B122804D16B
:102740002068016841F480710160134600224FF057
:1027500001112046009600F057F840B1206800684B
:10276000C00502D54FF4007020640320F8BD206935
:10277000B0F5804F0ED00620216800EAD51040F059
:10278000F000086133463A460B49204600F070F8E5
:1027900078B902E005F0FE0000E0E8B221680861C7
:1027A000054933463A46891F204600F061F8002863
:1027B000DCD00120F8BD00000800010070B516460D
:1027C0000D4604460DE02046FFF793FF08B10120B7
:1027D00070BD681C05D0FFF7C3FA801BA84207D85C
:1027E00035B120684069C0434007ECD4002070BD7B
:1027F000002044F8300F20216173A073216941F05B
:10280000200121612073E2E72DE9F0471E46904642
:102810000D460446C1F30747DDF8209008E0701C20
:1028200006D0FFF79DFAA0EB0900B0420FD876B1B1
:102830002068012F18D0806925EA00000004000CF0
:1028400014D000214145EAD00020BDE8F0870020E7
:1028500044F8300F20216173A073216941F02001F9
:10286000216120730120F0E74069E5E70121E9E7F4
:102870002DE9F0479A4691460E46044600254FF052
:102880002008C1F3074725E020684069C0434005A0
:1028900014D42068016841F40071016021686FF46C
:1028A00080604861256384F83D8084F83E50206C48
:1028B00040F00400206484F83C501FE0B9F1FF3F71
:1028C00008D0FFF74DFAA0EB0A0149450CD8B9F141
:1028D000000F09D02068012F13D0806926EA00007C
:1028E0000004000C0BD0CFE744F8305F84F80D8073
:1028F000A573206940F02000206125730120BDE808
:10290000F0874069EAE770B516460D4604460DE0CB
:102910002046FFF7EEFE08B1012070BD681C05D00F
:10292000FFF71EFA801BA84207D835B1206840691E
:10293000C0430006ECD4002070BD002044F8300FE6
:1029400020216173A073216941F02001216120736E
:10295000E2E700007FB5002415480094019402943A
:102960001249039401604FF48031C0E901140461FD
:10297000047680F820400F49C0E90A140125C5619A
:10298000C46080F830404561FEF7ABFF08B172B615
:10299000FEE7CDE90045694605480294FEF7F8FEDA
:1029A000002801D072B6FEE77FBD00000020014084
:1029B000840000200100000F70B586B01421684625
:1029C000FDF703FE19480024016841F08001016011
:1029D000016801F080010591016841F00101016089
:1029E000016801F001010591016841F002010160F7
:1029F00000680F4E00F002000590002204213046CE
:102A0000FFF7A8F9042000900125CDE9015469469B
:102A100030460394FFF7A6F803200095CDE90104A2
:102A200069460448FFF79EF806B070BD3038024092
:102A30000004024000000240FEE7FEE7012000F033
:102A4000FBF8FBE710B5FFF71FFB00F035FE012890
:102A500003D0BDE8104000F0C1BD10BD30B593B04B
:102A600030216846FDF7B1FD14210CA8FDF7ADFD3E
:102A70001D480025016841F080510160006800F0A8
:102A8000805011901948016841F48041016000684C
:102A9000022400F480401190012000900004019075
:102AA0008001CDE9064008AA0420A82182E813008D
:102AB0000B906846FFF752FC08B172B6FEE70CA90E
:102AC0000F2081E831004FF4A0500F904FF4805058
:102AD000109005210CA8FFF767FB002801D072B603
:102AE000FEE713B030BD00004038024000700040E7
:102AF0000248016841F470010160704788ED00E010
:102B0000FEE703B401984100009850EAC12018BFC5
:102B100004204A0D18BF40F0010040F2FF72B2EBF2
:102B2000515F08BF40F00200012808BF052002B035
:102B300070470907090E002804DB00F1E02080F847
:102B40000014704700F00F0000F1E02080F8141D21
:102B5000704730380A2801D20120704700207047A2
:102B60008AB0FFF799FAFFF779FFFFF725FFFFF724
:102B7000F1FE1F481D49002401601E49C0E90114EF
:102B80004FF48041C0E9034144618461C46104623F
:102B9000FFF7ECF808B172B6FEE704201449009084
:102BA00014234E2201F15400FEF739FD1C22124974
:102BB00002A8FDF7D8FC002102A800F049F80F494F
:102BC0000023802288600120CDE900040CA1104878
:102BD00000F01AFD0220CDE90004002380220DA19F
:102BE000114800F011FD00F02EF8FEE700540040FF
:102BF000CC000020A0860100D84100080000002081
:102C00005265616453656E736F725F5461736B00DC
:102C10005133000850756D70436F6E74726F6C5F46
:102C20005461736B00000000D5320008014600209B
:102C3000842900D0C81C704710B500B9012000F0ED
:102C400023FB002010BD10B500F0E2FB002010BDFA
:102C50007FB50D4604464169B0F9080081B1A1690C
:102C600071B1FFF7E3FFD4E905128DE80700D4E95D
:102C700000102B46226900F0F4FC039004B070BDF4
:102C8000FFF7D4FF03A9CDE90001208A2B4682B2C9
:102C9000D4E9001000F0B8FC012801D00020EDE7D5
:102CA0000398EBE72DE9F041184C0F460546E6681E
:102CB0002068001D00F020FA38B9206890F82C1028
:102CC00001208840216981432161681C07D137B107
:102CD0002168BDE8F0410E48091D00F051BA206896
:102CE0003544B5424560216805D2A06BBDE8F0418E
:102CF000091D00F02DBA606B091D00F029FAA06AC9
:102D0000854200D2A562BDE8F08100001C000020D1
:102D1000700400202DE9F041054600F03DFA2E4CEC
:102D2000A068401CA06020682C4F10B1606940B3BF
:102D30002DE02560A068012829D1002606EB860039
:102D400007EB800000F0F6F9761C072EF6D3234837
:102D50008C3000F0EFF92148A03000F0EBF91F486B
:102D6000B43000F0E7F91D48C83000F0E3F91B4823
:102D7000DC3000F0DFF919488C3060631430A06358
:102D800005E02068E96AC06A884200D82560606A68
:102D9000401C6062E96A012022698840104320617A
:102DA00001EB810007EB8000291D00F0E9F900F03C
:102DB00013FA606900280CD02068E96AC06A88426A
:102DC00007D207494FF080500860BFF34F8FBFF321
:102DD0006F8FBDE8F08100001C00002094030020EC
:102DE00004ED00E010B5044690F8510058B10128F8
:102DF0000CD002280FD0502080F31188BFF34F8FE2
:102E0000BFF36F8FFEE7206B00F0FAF92046BDE8B4
:102E1000104000F0F5B910BD10484FF47051420752
:102E200006D0C01D0D4920F00700411AC1F57051B0
:102E30000B4A00230144C2E900030839183A21F083
:102E4000070111604B600B600B1AC0E9001393601F
:102E50004FF0004053605061704700008404002030
:102E600070000020144E154CA6F1C8074FF0805892
:102E7000DFF84C9012E000BF00F08EF9F068C568F2
:102E8000281D00F039F9A068401EA0606068401E4F
:102E9000606000F0A1F92846FFF7A4FF60680028F1
:102EA000EAD138680128F9D9C9F80080BFF34F8FFB
:102EB000BFF36F8FF2E700005C0400201C000020CD
:102EC00004ED00E02DE9F0479A46DDE909848146EA
:102ED0006FF00303206B03EB82021044089E20F086
:102EE0000707780707D0502080F31188BFF34F8F72
:102EF000BFF36F8FFEE7002561B1002023180A5C45
:102F000083F834200A5C12B1401C1028F6D384F8F0
:102F1000435001E084F83450072E00D30626E662C1
:102F2000C4E91165201D00F010F904F1180000F04B
:102F30000CF92461C6F107006462A061E56484F8BD
:102F4000505052464946384600F0C0F82060B8F16B
:102F5000000F01D0C8F80040BDE8F08730B5114936
:102F600000E011460A688242FBD34B685C18844239
:102F700003D1406818444860084643681C189442CE
:102F800009D1084C183C2468A24209D052681A445E
:102F900042600A6812680260814200D0086030BD59
:102FA0000460F9E7700000200648416B096829B108
:102FB000416BC968C9684968816270474FF0FF3149
:102FC000FAE700001C00002008484068401C4FF051
:102FD000500080F3118804D0BFF34F8FBFF36F8F81
:102FE000FEE7BFF34F8FBFF36F8FFEE7780000203F
:102FF0002DE9F0410546002700F040FA324E3068D6
:1030000008B9FFF709FF706905424ED1C5B308350D
:1030100068070ED005F00700C0F1080005446807F6
:1030200007D0502080F31188BFF34F8FBFF36F8F0D
:10303000FEE72DB37068854237D823481830014623
:103040000C6801E020460C466168A94202D2216862
:103050000029F7D131688C4227D0076821680160C8
:1030600060680837411B10290FD96019420708D042
:10307000502080F31188BFF34F8FBFF36F8FFEE7AF
:1030800013E041606560FFF769FF61687068401A8E
:103090007060B268904200D2B06070690143002055
:1030A000C4E90001F068401CF06000F079FB78078B
:1030B00007D0502080F31188BFF34F8FBFF36F8F7D
:1030C000FEE73846BDE8F0815800002010B5031F28
:1030D0004FF080741C601B1F21F001011960191F43
:1030E000044B0B6014390A60091F6FF00202443868
:1030F0000A6010BDC92F0008D0E9013201699A6049
:10310000D0E901235A604A68824201D182684A604C
:10311000002202610868401E0860086870470000CD
:10312000034B036003F15400086080201060704777
:103130004001002000F108014FF0FF32C0E9011208
:10314000C160016100210160704700210161704789
:1031500030B50B685A1C02D000F1080202E0026987
:1031600004E02246546825689D42FAD953684B60B2
:1031700099608A60516008610168491C016030BD36
:1031800042684A6093688B609368596091600861F7
:103190000168491C01607047502080F31188BFF31B
:1031A0004F8FBFF36F8F0A494868401C4860012861
:1031B0000CD10848006810F0FF0F07D0502080F3B2
:1031C0001188BFF34F8FBFF36F8FFEE7704700008A
:1031D0007800002004ED00E00849486828B1401E4E
:1031E000486001D180F311887047502080F3118826
:1031F000BFF34F8FBFF36F8FFEE700007800002012
:1032000070B500282AD0164DA0F1080460686969DD
:10321000084207D1502080F31188BFF34F8FBFF3CE
:103220006F8FFEE722683AB1502080F31188BFF318
:103230004F8FBFF36F8FFEE78843606000F01EF989
:1032400060686968084468602046FFF787FE28695F
:10325000401C2861BDE8704000F0A2BA70BD0000BB
:10326000580000204FF0E0200021016181610549F4
:103270004FF47A720968B1FBF2F1491E41610721EE
:10328000016170471800002010B5020014D00F48EB
:10329000006B38B1502080F31188BFF34F8FBFF31C
:1032A0006F8FFEE700F0EAF800211046FFF7FAFC06
:1032B00000F076FA002807D105494FF080500860E9
:1032C000BFF34F8FBFF36F8F10BD00001C000020B5
:1032D00004ED00E0124C134D134E4FF47A77606802
:1032E000A8420BDA012204213046FEF733FD012209
:1032F00000210E48FEF7E4F90DA10AE000220421A6
:103300003046FEF727FD012200210848FEF7D8F9D4
:103310000BA10648FEF7F9F93846FFF7B5FFDEE7DF
:10332000000000200000F0410004024020010020C5
:10333000424F4D204E554F433A204F4E2000000043
:10334000424F4D204E554F433A204F4646200000F5
:103350002DED048B244C9FED259B9FED268B4FF488
:103360007A752648FEF76EFB64212448FEF714FBAD
:103370002248FEF7B3FA00EE100AB8EE400A84EDD8
:10338000000A10EE100A00F0A9FE53EC192B00F011
:1033900059FB53EC182B00F0ADFC53EC182B00F04C
:1033A000A7FD00F075FA606000F098FE41EC100B8C
:1033B000124853EC102B12A1A830FDF739F80F4832
:1033C000002211469C30FEF77BF90C49A831A1F18F
:1033D0000C00FEF79AF909480CA19C30FEF795F90C
:1033E0002846FFF751FFBCE7000000200000000066
:1033F00000FEAF40000000000000594084000020A3
:10340000444F20414D3A20252E31660020250000F2
:1034100010B586B00024039405AA04A903A8049457
:10342000FFF77EFEDDE903010094CDE901100023E2
:103430000EA11048059A00F014F90F490028C8623F
:1034400011D0502080F31188BFF34F8FBFF36F8FDF
:103450004FF0FF30886201204861CC6006B0BDE8C3
:10346000104000F041B806B010BD000049444C4582
:1034700000000000652E00081C0000200248016BBF
:10348000491C0163704700001C0000201448016BB8
:1034900011B10121C16170470021C1610169B1FA17
:1034A00081F1C1F11F0101EB81020E4951F8223077
:1034B0006BB101EB820101F108034A6852684A606E
:1034C0009A4201D152684A60D16801607047502029
:1034D00080F31188BFF34F8FBFF36F8FFEE70000BB
:1034E0001C000020940300201CB537480168374AAF
:1034F000914207D1502080F31188BFF34F8FBFF363
:103500006F8FFEE700683149491E884207D150207D
:1035100080F31188BFF34F8FBFF36F8FFEE72C4905
:1035200008780190FF20087008788DF800009DF859
:1035300000009DF8002000F0F000904207D05020DD
:1035400080F31188BFF34F8FBFF36F8FFEE79DF8B5
:103550000000204C00F0500020700720A06005E023
:103560009DF8002052008DF80020401E9DF800209C
:103570001206F5D4A060032807D0502080F31188EC
:10358000BFF34F8FBFF36F8FFEE74FF44070A06023
:10359000019808700C482030016841F47001016006
:1035A000016841F070410160FFF75CFE002060603F
:1035B000FCF76AFE0848016841F040410160FCF7F1
:1035C0004FFE00201CBD000000ED00E071C20F4165
:1035D00000E400E07800002034EF00E010B5502057
:1035E00080F31188BFF34F8FBFF36F8F00F072F835
:1035F00018B104494FF080500860002080F3118812
:1036000010BD000004ED00E02DE9FF5F8346DDE919
:103610000E87994616468A469000FFF7E9FC05009A
:103620001CD05420FFF7E4FC040014D000202563D4
:1036300084F85100CDE90240CDE900874B4632467F
:1036400051465846FFF73EFC2046FFF763FB01203A
:1036500004B0BDE8F09F2846FFF7D2FD4FF0FF30E1
:10366000F6E7F0B585B0DDE90B640A9DA6B1DCB1E3
:10367000542700972663022684F85160002604AF81
:10368000CDE90246CDE90057FFF71CFC2046FFF7C5
:1036900041FB049805B0F0BD502080F31188BFF3C2
:1036A0004F8FBFF36F8FFEE7502080F31188BFF379
:1036B0004F8FBFF36F8FFEE70548416919B1006B6B
:1036C00018B10020704701207047022070470000A9
:1036D0001C0000202DE9F0412F4C0026206B28B162
:1036E000A069401CA0613046BDE8F081E5686D1C12
:1036F000E56013D1606B006838B1502080F3118809
:10370000BFF34F8FBFF36F8FFEE7606BA16B6163F9
:10371000A063206A401C2062FFF746FCA06ADFF825
:103720007C80854209D3606B0068A0B1606BC06883
:10373000C7687868854211D2A0622068C06A00EB31
:10374000800158F82100012800D90126E0690028ED
:10375000C9D00126C7E74FF0FF30EDE7381DFFF76E
:10376000CBFCB86A18B107F11800FFF7C5FCF96A7D
:103770000120226988401043206101EB810108EBA0
:103780008100391DFFF7FCFCF86A2168C96A88428C
:10379000C9D30126C7E700001C00002094030020C5
:1037A0002DE9F0472C4D00242746286B38B1FFF750
:1037B000F3FC286B401E2863286B40B146E0502084
:1037C00080F31188BFF34F8FBFF36F8FFEE7A968B7
:1037D000224E0120D1B3A6F1B40980463068E8B189
:1037E000F068C46804F11800FFF786FC201DFFF79D
:1037F00083FCE06A2A6908FA00F11143296100EBB1
:10380000800109EB8100211DFFF7BAFCE06A2968FD
:10381000C96A8842E2D3C5F81C80DFE70CB1FFF724
:10382000C3FBAC6944B14646FFF754FF00B1EE61FB
:10383000641EF9D10020A861E86938B10849012760
:1038400038070860BFF34F8FBFF36F8FFFF7C4FCDB
:103850003846BDE8F08700001C0000204804002026
:1038600004ED00E010B500290AD00878002807D040
:1038700005487844FDF72EFA002801D0002010BD3D
:103880000248784410BD00005A0A0000520A0000A5
:1038900021F00042A2F16052B2F5801F01F0004316
:1038A00028BFD2F17F6C0BD95FEA001C43EAC20249
:1038B00042EB507018BF704728BF20F001007047DE
:1038C000B2F5801FBCBF184670474FEA410C1CF58B
:1038D000001F02D2084600F077BC70B500F0B4FAC1
:1038E00000000089FFF7F6BF4FF00040A0F5800010
:1038F0007047000010B591EA030F48BF83F0004302
:1039000000F10A83841A71EB030C05D2121943EB00
:103910000C03001B61EB0C01DFF824E14FEA1154AA
:10392000A4EB135C1EEA430F18BF9EEA445F73D0FA
:1039300023EA0E03DCF1200E21EA045143F4801344
:1039400032D322FA0CFE10EB0E0023FA0CFE41EBF0
:103950000E01CCF1200E03FA0EFE10EB0E0051F119
:103960000001B1F5801FCCF1200E32D201EB0451E1
:1039700012FA0EF2BDE8104058BF7047401C38BF25
:103980005FEA420218BF7047002814BF20F0010010
:1039900041F100014FEA410313F5001F38BF7047A2
:1039A000A1F1C04100F09EBA012A43EB0302ACF141
:1039B000200CDCF11F0E32BF4FF0000E23FA0CF387
:1039C00010EB030041EB0451B4EB115FD0D0A1EB3D
:1039D000045101F5801149085FEA300001EB045100
:1039E0000ED350F1000038BF12FA0EFE08D1BDE828
:1039F0001040C9E7401C38BF5FEA4202CAD1C3E7A2
:103A0000BDE810404FEA410313F5001F38BF70476F
:103A1000A1F1C04100F066BA9EEA445F08D011EA05
:103A20005E0FBDE8104004BF01F000410020704768
:103A3000BDE8104070B500F007FA00BF64FBBE3E61
:103A40000000E0FF2DE9C04130B4DFF8A0C23CEA3D
:103A5000111418BF3CEA131400F0EC8081EA03054E
:103A60001CEA111444EAD57418BF1CEA131500F0BF
:103A7000C780A4EB05044FF0004545EAC12145EAA3
:103A8000C32341EA505143EA525304F17F749942EF
:103A900004F500344FEAC0204FEAC22208BF90422A
:103AA00000F09C804FEA13650FF24016765D4FEAF6
:103AB000134506FB05F7C7F1807706FB07F74FEACA
:103AC000D737A7FB03687642C8F58038A7FB06CE38
:103AD00038BFA8F1010807FB08E64FF0000EA6FB6F
:103AE000028CE6FB03CEDCF1000CCEF1004E38BFB9
:103AF000AEF1010EA6FB0C584FF000074FF0000589
:103B0000E6FB0E87A1FB08C6A0FB07CE16EB0E0650
:103B100045F10005E1FB076515F1E04E7EBFA4F518
:103B200080345FEA46066D4116F1800745F10005D5
:103B30004FEA17274FEA066647EA0567A6F1DE4611
:103B4000B6F1805F4FEA15251FD9384624F0010CE5
:103B500005EBC471BCF1FE6F01EB0C1102D8F0BC97
:103B6000BDE8008124425CBF01F5801E9EEAC47F4F
:103B700002D4F0BCBDE80081244238D4F0BCA1F1ED
:103B8000C041BDE8004100F0ADB94FEAD22242EA9F
:103B900043524FEAD323A7FB02864FEAD02040EAE4
:103BA000415007FB03661EEA0E0F4FEAD12105FBC9
:103BB000026658BFA6EB0056B6EB00564FEA520E0F
:103BC0004EEAC37E18EB0E0E56EB530EBDD518EB26
:103BD00002085E417F1C55F10005B6E74FF48015E1
:103BE0004FF000074FF000064FF00008ADE7F0BCC3
:103BF0004FF0000001F1C04101F00041BDE800813B
:103C000011EA0C1F0CEA131500D00CE013EA0C1F8C
:103C100000F025804FF00000F0BC81EA030101F0C4
:103C20000041BDE80081F0BCBDE8004181EA03012C
:103C300000F058B9F0BCBDE8004170B500F004F9DF
:103C4000097EFC3E00F007B881EA03014FF0000056
:103C500001F00041704781EA030100F043B9F0BC74
:103C6000BDE800414FF0000021497047FFFDFBF91E
:103C7000F7F5F4F2F0EEEDEBE9E8E6E4E3E1E0DE9F
:103C8000DDDBDAD8D7D5D4D3D1D0CFCDCCCBCAC811
:103C9000C7C6C5C4C2C1C0BFBEBDBCBBBAB9B8B738
:103CA000B6B5B4B3B2B1B0AFAEADACABAAA9A8A82B
:103CB000A7A6A5A4A3A3A2A1A09F9F9E9D9C9C9BF9
:103CC0009A999998979796959594939392919190A4
:103CD0008F8F8E8E8D8C8C8B8B8A89898888878735
:103CE0008685858484838382828181800000FF07AA
:103CF0000000F87FDFF848C170B51CEA111E1EBF36
:103D00001CEA13159EEA0C0F95EA0C0F00F06F8069
:103D100081EA030423EA4C134EEAD47E21EA4C11D3
:103D200041F4801143F48013AE44A1FB024CA0FB8C
:103D30000365AEF17F7E361955EB0C05A1FB034CF4
:103D40004CF10003A0FB021C16EB0C06654153F17D
:103D50000003094218BF46F0010613F4007F0BD19F
:103D60004FEA03314FEA0530340341EA155140EA86
:103D700016506FF003020AE04FEAC3214FEAC52054
:103D8000F40241EA555140EA56506FF0020202EB4C
:103D90002E4201EB025585EACE710AD05FEA440C4F
:103DA00018BF24F0004450F1000041F1000120EA66
:103DB000D47040F2FE7C624500D270BDA84214BFB0
:103DC0004FF080444FF04044002E08BF0024BEF165
:103DD000806FA8BFA1F1C041BDE8704080F2828031
:103DE0004FF0000001F1C04101F0004170479EEA30
:103DF0000C0F0CEA131518BF95EA0C0F06D04FF004
:103E0000000081EA030E0EF0004170BD00F01CF8C6
:103E10008900013E00F007B800F009B84FEA430CF2
:103E20005FEA5C5C08D081EA030100F05BB84FEA0E
:103E3000410C5FEA5C5CF6D14FF00000014970472D
:103E40000000FF070000F87F0EF1020E2EF0030EB7
:103E50005EF8046B364205D4012A43EB030515F5E1
:103E6000001F12D8012841EB010C1CF5001F0CD8D3
:103E70000ED14FEAD17C15F5001F0CEB4C0C0CF168
:103E8000020C08BF4CEBD37C04E04FF0080C01E0BF
:103E90004FEAD37C0CEB4C0526FA05F606F0070634
:103EA000B6F1040C06D20EEB860CBDE870404CF067
:103EB000010C6047DFE80CF0090B02024FF00041F3
:103EC0004FF00000A1F5002170BD194610460128F1
:103ED00051EB010418BFD4F5001484BF002001F099
:103EE000004170BD0808A0F500114FEA310170478C
:103EF00091EA030F10B581F000413FF503AD83F067
:103F0000004300F009B8000010B591EA030F48BF64
:103F100083F000433FF5F6AC841A71EB030C07D233
:103F200012198CF0004C43EB0C03001B61EB0C01ED
:103F3000DFF8A4E14FEA1154A4EB135C1EEA430F2F
:103F400018BF9EEA445F00F0B08023EA6E0352423D
:103F500021EA0451C3EB6E0338BF5B1EDCF1200E77
:103F600025D322FA0CFE10EB0E0043FA0CFE41EBB7
:103F70000E01CCF1200E03FA0EFE10EB0E0051F1F3
:103F80000001CCF1200E29D412FA0EF201EB0451FB
:103F9000BDE8104058BF7047401C1CBFB2F1004F35
:103FA000704700280CBF491C20F00100704712EB3D
:103FB000020E43EB030218BF4FF0010E4EEA42021D
:103FC000ACF1200CDCF11E0E54D943FA0CFE10EBC0
:103FD0000E0051F1FF31CCF11E0ED5D50EF1010EC0
:103FE00012FA0EFE404141EB010101EB445C5FEA35
:103FF0005C5C10D910EBDE7001EB045138BFBEF1F0
:10400000004FBDE8104018BF704700280CBF491C86
:1040100020F00100704730D24FEAD42C11F5001186
:1040200024F400641BD0B1FA81F20B3AA41AA41E46
:10403000D2F12003914030FA03F31943904001EB91
:10404000CC71002C01EB0451BDE81040A8BF7047B3
:1040500001F1C0414FF0000001F000417047B0FA9B
:1040600080F310FA03F100D110BDE41A173C4805A3
:10407000C90AE4E701EB045110BD491001EB0451FA
:10408000BDE810404FEA300002E04FF000017047F9
:104090004A0008BF0042F8D0B2F5001F28BF7047A1
:1040A00001F000414FF0000070479EEA445F07D0E6
:1040B00011EA5E0FBDE8104004BF002100207047E8
:1040C000BDE8104070B5FFF7BFFE00BF40DFF63E11
:1040D00083F00041104670470000E0FF43004FEAC4
:1040E000D30C4FEA3C0C43401FBF40070CF160511A
:1040F00013F0FE4F70471CF0006F03D100200CF04E
:10410000004170470CF0004343EA507010B540EA9C
:10411000CC0000F00EF800BF000000924FEA000152
:10412000FFF7E0BE4FF000414FF00000A1F5002185
:1041300070470EF1020E2EF0030E5EF8044B24427F
:1041400004D44FEA4102B2F17F4F11D84FEA400345
:10415000B3F17F4F0CD80ED14FEAD07CB2F17F4F34
:104160000CEB4C0C0CF1020C08BF4CEBD17C04E0C6
:104170004FF0080C01E04FEAD17C0CEB4C0324FA21
:1041800003F404F00704B4F1040C06D20EEB840C23
:10419000BDE810404CF0010C6047DFE80CF0070868
:1041A00002024FF00040A0F5800010BD084642001A
:1041B00018BFD2F1807288BF00F0004010BD4FF0F0
:1041C0004070E1EE100A7047FF2141EAD050C0056F
:1041D0007047FCF7FDBA0000A04200083D2A000825
:1041E000000000000000000080000000000000004F
:1041F00000000000000000000000000001020304B5
:104200000607080900000000010203040240000044
:10421000000000A00000000005400000000000C8F1
:10422000000000000C4000000000409C0000000066
:10423000194000000020BCBE000000003440000017
:10424000BFC91B8E00000004B5400000504BCFD00A
:104250006607E2CF010000006C4100003E8251AAD7
:10426000DFEEA73401000000D9420000DCB5A0E277
:104270003A301F97FFFFFFFFB4450000FD25A0C89F
:10428000E9A3C14FFFFFFFFFFF3F000000000080D8
:1042900000000000FF3F0000000000800000000060
:1042A00064656661756C745461736B00E842000864
:1042B0000000002084000000C40100086C430008D6
:1042C0008400002064460000E00100081C0000009B
:1042D00043000000F8FFFFFF0C0000000E0000008C
:1042E0000F0000002E000000000000000000000091
:1042F00000000000010000001000000000000000AD
:104300000024F40000000000000000000000000095
:10431000000000000000000000000000000000009D
:10432000000000000000000000000000000000008D
:10433000000000000000000000000000000000007D
:10434000000000000000000000000000000000006D
:10435000000000000000000000000000000000005D
:0C43600000000000AAAAAAAA00000000A9
:040000050800018965
:00000001FF
